{
  "_format": "hh-sol-artifact-1",
  "contractName": "Ogres",
  "sourceName": "contracts/Ogres.sol",
  "abi": [
    {
      "inputs": [],
      "stateMutability": "nonpayable",
      "type": "constructor"
    },
    {
      "anonymous": false,
      "inputs": [
        {
          "indexed": true,
          "internalType": "address",
          "name": "owner",
          "type": "address"
        },
        {
          "indexed": true,
          "internalType": "address",
          "name": "approved",
          "type": "address"
        },
        {
          "indexed": true,
          "internalType": "uint256",
          "name": "tokenId",
          "type": "uint256"
        }
      ],
      "name": "Approval",
      "type": "event"
    },
    {
      "anonymous": false,
      "inputs": [
        {
          "indexed": true,
          "internalType": "address",
          "name": "owner",
          "type": "address"
        },
        {
          "indexed": true,
          "internalType": "address",
          "name": "operator",
          "type": "address"
        },
        {
          "indexed": false,
          "internalType": "bool",
          "name": "approved",
          "type": "bool"
        }
      ],
      "name": "ApprovalForAll",
      "type": "event"
    },
    {
      "anonymous": false,
      "inputs": [
        {
          "indexed": false,
          "internalType": "uint256",
          "name": "tokenId",
          "type": "uint256"
        },
        {
          "indexed": false,
          "internalType": "address payable",
          "name": "owner",
          "type": "address"
        }
      ],
      "name": "BuyOgreEvent",
      "type": "event"
    },
    {
      "anonymous": false,
      "inputs": [
        {
          "indexed": false,
          "internalType": "uint256",
          "name": "tokenId",
          "type": "uint256"
        },
        {
          "indexed": false,
          "internalType": "uint256",
          "name": "price",
          "type": "uint256"
        }
      ],
      "name": "ChangePriceEvent",
      "type": "event"
    },
    {
      "anonymous": false,
      "inputs": [
        {
          "indexed": false,
          "internalType": "uint256",
          "name": "tokenId",
          "type": "uint256"
        },
        {
          "indexed": false,
          "internalType": "string",
          "name": "name",
          "type": "string"
        },
        {
          "indexed": false,
          "internalType": "string",
          "name": "tokenURI",
          "type": "string"
        },
        {
          "indexed": false,
          "internalType": "address payable",
          "name": "owner",
          "type": "address"
        },
        {
          "indexed": false,
          "internalType": "uint256",
          "name": "price",
          "type": "uint256"
        },
        {
          "indexed": false,
          "internalType": "bool",
          "name": "forSale",
          "type": "bool"
        }
      ],
      "name": "MintNftEvent",
      "type": "event"
    },
    {
      "anonymous": false,
      "inputs": [
        {
          "indexed": true,
          "internalType": "address",
          "name": "previousOwner",
          "type": "address"
        },
        {
          "indexed": true,
          "internalType": "address",
          "name": "newOwner",
          "type": "address"
        }
      ],
      "name": "OwnershipTransferred",
      "type": "event"
    },
    {
      "anonymous": false,
      "inputs": [
        {
          "indexed": false,
          "internalType": "uint256",
          "name": "tokenId",
          "type": "uint256"
        },
        {
          "indexed": false,
          "internalType": "bool",
          "name": "forSale",
          "type": "bool"
        }
      ],
      "name": "ToggleSaleEvent",
      "type": "event"
    },
    {
      "anonymous": false,
      "inputs": [
        {
          "indexed": true,
          "internalType": "address",
          "name": "from",
          "type": "address"
        },
        {
          "indexed": true,
          "internalType": "address",
          "name": "to",
          "type": "address"
        },
        {
          "indexed": true,
          "internalType": "uint256",
          "name": "tokenId",
          "type": "uint256"
        }
      ],
      "name": "Transfer",
      "type": "event"
    },
    {
      "inputs": [
        {
          "internalType": "address",
          "name": "to",
          "type": "address"
        },
        {
          "internalType": "uint256",
          "name": "tokenId",
          "type": "uint256"
        }
      ],
      "name": "approve",
      "outputs": [],
      "stateMutability": "nonpayable",
      "type": "function"
    },
    {
      "inputs": [
        {
          "internalType": "address",
          "name": "owner",
          "type": "address"
        }
      ],
      "name": "balanceOf",
      "outputs": [
        {
          "internalType": "uint256",
          "name": "",
          "type": "uint256"
        }
      ],
      "stateMutability": "view",
      "type": "function"
    },
    {
      "inputs": [
        {
          "internalType": "uint256",
          "name": "tokenId",
          "type": "uint256"
        }
      ],
      "name": "buyOgre",
      "outputs": [],
      "stateMutability": "payable",
      "type": "function"
    },
    {
      "inputs": [
        {
          "internalType": "uint256",
          "name": "tokenId",
          "type": "uint256"
        }
      ],
      "name": "getApproved",
      "outputs": [
        {
          "internalType": "address",
          "name": "",
          "type": "address"
        }
      ],
      "stateMutability": "view",
      "type": "function"
    },
    {
      "inputs": [],
      "name": "getTotalOgres",
      "outputs": [
        {
          "internalType": "uint256",
          "name": "",
          "type": "uint256"
        }
      ],
      "stateMutability": "view",
      "type": "function"
    },
    {
      "inputs": [
        {
          "internalType": "address",
          "name": "owner",
          "type": "address"
        },
        {
          "internalType": "address",
          "name": "operator",
          "type": "address"
        }
      ],
      "name": "isApprovedForAll",
      "outputs": [
        {
          "internalType": "bool",
          "name": "",
          "type": "bool"
        }
      ],
      "stateMutability": "view",
      "type": "function"
    },
    {
      "inputs": [
        {
          "internalType": "string",
          "name": "name",
          "type": "string"
        },
        {
          "internalType": "uint256",
          "name": "price",
          "type": "uint256"
        },
        {
          "internalType": "string",
          "name": "tokenURI",
          "type": "string"
        }
      ],
      "name": "mintNFT",
      "outputs": [
        {
          "internalType": "uint256",
          "name": "",
          "type": "uint256"
        }
      ],
      "stateMutability": "nonpayable",
      "type": "function"
    },
    {
      "inputs": [],
      "name": "name",
      "outputs": [
        {
          "internalType": "string",
          "name": "",
          "type": "string"
        }
      ],
      "stateMutability": "view",
      "type": "function"
    },
    {
      "inputs": [
        {
          "internalType": "uint256",
          "name": "",
          "type": "uint256"
        }
      ],
      "name": "ogres",
      "outputs": [
        {
          "internalType": "uint256",
          "name": "tokenId",
          "type": "uint256"
        },
        {
          "internalType": "string",
          "name": "name",
          "type": "string"
        },
        {
          "internalType": "string",
          "name": "tokenURI",
          "type": "string"
        },
        {
          "internalType": "address payable",
          "name": "owner",
          "type": "address"
        },
        {
          "internalType": "uint256",
          "name": "price",
          "type": "uint256"
        },
        {
          "internalType": "bool",
          "name": "forSale",
          "type": "bool"
        }
      ],
      "stateMutability": "view",
      "type": "function"
    },
    {
      "inputs": [],
      "name": "owner",
      "outputs": [
        {
          "internalType": "address",
          "name": "",
          "type": "address"
        }
      ],
      "stateMutability": "view",
      "type": "function"
    },
    {
      "inputs": [
        {
          "internalType": "uint256",
          "name": "tokenId",
          "type": "uint256"
        }
      ],
      "name": "ownerOf",
      "outputs": [
        {
          "internalType": "address",
          "name": "",
          "type": "address"
        }
      ],
      "stateMutability": "view",
      "type": "function"
    },
    {
      "inputs": [],
      "name": "renounceOwnership",
      "outputs": [],
      "stateMutability": "nonpayable",
      "type": "function"
    },
    {
      "inputs": [
        {
          "internalType": "address",
          "name": "from",
          "type": "address"
        },
        {
          "internalType": "address",
          "name": "to",
          "type": "address"
        },
        {
          "internalType": "uint256",
          "name": "tokenId",
          "type": "uint256"
        }
      ],
      "name": "safeTransferFrom",
      "outputs": [],
      "stateMutability": "nonpayable",
      "type": "function"
    },
    {
      "inputs": [
        {
          "internalType": "address",
          "name": "from",
          "type": "address"
        },
        {
          "internalType": "address",
          "name": "to",
          "type": "address"
        },
        {
          "internalType": "uint256",
          "name": "tokenId",
          "type": "uint256"
        },
        {
          "internalType": "bytes",
          "name": "_data",
          "type": "bytes"
        }
      ],
      "name": "safeTransferFrom",
      "outputs": [],
      "stateMutability": "nonpayable",
      "type": "function"
    },
    {
      "inputs": [
        {
          "internalType": "address",
          "name": "operator",
          "type": "address"
        },
        {
          "internalType": "bool",
          "name": "approved",
          "type": "bool"
        }
      ],
      "name": "setApprovalForAll",
      "outputs": [],
      "stateMutability": "nonpayable",
      "type": "function"
    },
    {
      "inputs": [
        {
          "internalType": "uint256",
          "name": "tokenId",
          "type": "uint256"
        },
        {
          "internalType": "uint256",
          "name": "newPrice",
          "type": "uint256"
        }
      ],
      "name": "setPrice",
      "outputs": [],
      "stateMutability": "nonpayable",
      "type": "function"
    },
    {
      "inputs": [
        {
          "internalType": "bytes4",
          "name": "interfaceId",
          "type": "bytes4"
        }
      ],
      "name": "supportsInterface",
      "outputs": [
        {
          "internalType": "bool",
          "name": "",
          "type": "bool"
        }
      ],
      "stateMutability": "view",
      "type": "function"
    },
    {
      "inputs": [],
      "name": "symbol",
      "outputs": [
        {
          "internalType": "string",
          "name": "",
          "type": "string"
        }
      ],
      "stateMutability": "view",
      "type": "function"
    },
    {
      "inputs": [
        {
          "internalType": "uint256",
          "name": "tokenId",
          "type": "uint256"
        }
      ],
      "name": "toggleSale",
      "outputs": [],
      "stateMutability": "nonpayable",
      "type": "function"
    },
    {
      "inputs": [
        {
          "internalType": "uint256",
          "name": "tokenId",
          "type": "uint256"
        }
      ],
      "name": "tokenURI",
      "outputs": [
        {
          "internalType": "string",
          "name": "",
          "type": "string"
        }
      ],
      "stateMutability": "view",
      "type": "function"
    },
    {
      "inputs": [
        {
          "internalType": "address",
          "name": "from",
          "type": "address"
        },
        {
          "internalType": "address",
          "name": "to",
          "type": "address"
        },
        {
          "internalType": "uint256",
          "name": "tokenId",
          "type": "uint256"
        }
      ],
      "name": "transferFrom",
      "outputs": [],
      "stateMutability": "nonpayable",
      "type": "function"
    },
    {
      "inputs": [
        {
          "internalType": "address",
          "name": "newOwner",
          "type": "address"
        }
      ],
      "name": "transferOwnership",
      "outputs": [],
      "stateMutability": "nonpayable",
      "type": "function"
    }
  ],
  "bytecode": "0x60806040523480156200001157600080fd5b506040518060400160405280600581526020017f4f677265730000000000000000000000000000000000000000000000000000008152506040518060400160405280600381526020017f4f47520000000000000000000000000000000000000000000000000000000000815250816000908051906020019062000096929190620001a6565b508060019080519060200190620000af929190620001a6565b505050620000d2620000c6620000d860201b60201c565b620000e060201b60201c565b620002bb565b600033905090565b6000600760009054906101000a900473ffffffffffffffffffffffffffffffffffffffff16905081600760006101000a81548173ffffffffffffffffffffffffffffffffffffffff021916908373ffffffffffffffffffffffffffffffffffffffff1602179055508173ffffffffffffffffffffffffffffffffffffffff168173ffffffffffffffffffffffffffffffffffffffff167f8be0079c531659141344cd1fd0a4f28419497f9722a3daafe3b4186f6b6457e060405160405180910390a35050565b828054620001b49062000256565b90600052602060002090601f016020900481019282620001d8576000855562000224565b82601f10620001f357805160ff191683800117855562000224565b8280016001018555821562000224579182015b828111156200022357825182559160200191906001019062000206565b5b50905062000233919062000237565b5090565b5b808211156200025257600081600090555060010162000238565b5090565b600060028204905060018216806200026f57607f821691505b602082108114156200028657620002856200028c565b5b50919050565b7f4e487b7100000000000000000000000000000000000000000000000000000000600052602260045260246000fd5b61429280620002cb6000396000f3fe6080604052600436106101355760003560e01c8063715018a6116100ab578063c87b56dd1161006f578063c87b56dd14610417578063d6a8e19614610454578063e72f984314610496578063e985e9c5146104bf578063f2fde38b146104fc578063f7d975771461052557610135565b8063715018a6146103585780638da5cb5b1461036f57806395d89b411461039a578063a22cb465146103c5578063b88d4fde146103ee57610135565b806323b872dd116100fd57806323b872dd1461022457806342842e0e1461024d57806351c1321e1461027657806357c9f470146102b35780636352211e146102de57806370a082311461031b57610135565b806301ffc9a71461013a57806306fdde0314610177578063081812fc146101a2578063095ea7b3146101df5780631fe1fe9314610208575b600080fd5b34801561014657600080fd5b50610161600480360381019061015c9190612f9a565b61054e565b60405161016e9190613a0e565b60405180910390f35b34801561018357600080fd5b5061018c610630565b6040516101999190613a29565b60405180910390f35b3480156101ae57600080fd5b506101c960048036038101906101c4919061306b565b6106c2565b6040516101d691906139a7565b60405180910390f35b3480156101eb57600080fd5b5061020660048036038101906102019190612f5e565b610747565b005b610222600480360381019061021d919061306b565b61085f565b005b34801561023057600080fd5b5061024b60048036038101906102469190612e58565b610cb9565b005b34801561025957600080fd5b50610274600480360381019061026f9190612e58565b610d19565b005b34801561028257600080fd5b5061029d60048036038101906102989190612fec565b610d39565b6040516102aa9190613d2b565b60405180910390f35b3480156102bf57600080fd5b506102c8610f5c565b6040516102d59190613d2b565b60405180910390f35b3480156102ea57600080fd5b506103056004803603810190610300919061306b565b610f72565b60405161031291906139a7565b60405180910390f35b34801561032757600080fd5b50610342600480360381019061033d9190612df3565b611024565b60405161034f9190613d2b565b60405180910390f35b34801561036457600080fd5b5061036d6110dc565b005b34801561037b57600080fd5b50610384611164565b60405161039191906139a7565b60405180910390f35b3480156103a657600080fd5b506103af61118e565b6040516103bc9190613a29565b60405180910390f35b3480156103d157600080fd5b506103ec60048036038101906103e79190612f22565b611220565b005b3480156103fa57600080fd5b5061041560048036038101906104109190612ea7565b611236565b005b34801561042357600080fd5b5061043e6004803603810190610439919061306b565b611298565b60405161044b9190613a29565b60405180910390f35b34801561046057600080fd5b5061047b6004803603810190610476919061306b565b6113ea565b60405161048d96959493929190613d98565b60405180910390f35b3480156104a257600080fd5b506104bd60048036038101906104b8919061306b565b611563565b005b3480156104cb57600080fd5b506104e660048036038101906104e19190612e1c565b61190e565b6040516104f39190613a0e565b60405180910390f35b34801561050857600080fd5b50610523600480360381019061051e9190612df3565b6119a2565b005b34801561053157600080fd5b5061054c60048036038101906105479190613094565b611a9a565b005b60007f80ac58cd000000000000000000000000000000000000000000000000000000007bffffffffffffffffffffffffffffffffffffffffffffffffffffffff1916827bffffffffffffffffffffffffffffffffffffffffffffffffffffffff1916148061061957507f5b5e139f000000000000000000000000000000000000000000000000000000007bffffffffffffffffffffffffffffffffffffffffffffffffffffffff1916827bffffffffffffffffffffffffffffffffffffffffffffffffffffffff1916145b80610629575061062882611e37565b5b9050919050565b60606000805461063f90614087565b80601f016020809104026020016040519081016040528092919081815260200182805461066b90614087565b80156106b85780601f1061068d576101008083540402835291602001916106b8565b820191906000526020600020905b81548152906001019060200180831161069b57829003601f168201915b5050505050905090565b60006106cd82611ea1565b61070c576040517f08c379a000000000000000000000000000000000000000000000000000000000815260040161070390613c4b565b60405180910390fd5b6004600083815260200190815260200160002060009054906101000a900473ffffffffffffffffffffffffffffffffffffffff169050919050565b600061075282610f72565b90508073ffffffffffffffffffffffffffffffffffffffff168373ffffffffffffffffffffffffffffffffffffffff1614156107c3576040517f08c379a00000000000000000000000000000000000000000000000000000000081526004016107ba90613ceb565b60405180910390fd5b8073ffffffffffffffffffffffffffffffffffffffff166107e2611f0d565b73ffffffffffffffffffffffffffffffffffffffff16148061081157506108108161080b611f0d565b61190e565b5b610850576040517f08c379a000000000000000000000000000000000000000000000000000000000815260040161084790613b8b565b60405180910390fd5b61085a8383611f15565b505050565b61086881611ea1565b6108a7576040517f08c379a000000000000000000000000000000000000000000000000000000000815260040161089e90613acb565b60405180910390fd5b6000600960008381526020019081526020016000206040518060c0016040529081600082015481526020016001820180546108e190614087565b80601f016020809104026020016040519081016040528092919081815260200182805461090d90614087565b801561095a5780601f1061092f5761010080835404028352916020019161095a565b820191906000526020600020905b81548152906001019060200180831161093d57829003601f168201915b5050505050815260200160028201805461097390614087565b80601f016020809104026020016040519081016040528092919081815260200182805461099f90614087565b80156109ec5780601f106109c1576101008083540402835291602001916109ec565b820191906000526020600020905b8154815290600101906020018083116109cf57829003601f168201915b505050505081526020016003820160009054906101000a900473ffffffffffffffffffffffffffffffffffffffff1673ffffffffffffffffffffffffffffffffffffffff1673ffffffffffffffffffffffffffffffffffffffff168152602001600482015481526020016005820160009054906101000a900460ff16151515158152505090506000610a7d83610f72565b90508160800151341015610ac6576040517f08c379a0000000000000000000000000000000000000000000000000000000008152600401610abd90613c8b565b60405180910390fd5b8160a00151610b0a576040517f08c379a0000000000000000000000000000000000000000000000000000000008152600401610b0190613b4b565b60405180910390fd5b6000826060015190508073ffffffffffffffffffffffffffffffffffffffff166108fc349081150290604051600060405180830381858888f19350505050158015610b59573d6000803e3d6000fd5b50610b65823386611fce565b33836060019073ffffffffffffffffffffffffffffffffffffffff16908173ffffffffffffffffffffffffffffffffffffffff168152505060008360a00190151590811515815250508260096000868152602001908152602001600020600082015181600001556020820151816001019080519060200190610be8929190612c17565b506040820151816002019080519060200190610c05929190612c17565b5060608201518160030160006101000a81548173ffffffffffffffffffffffffffffffffffffffff021916908373ffffffffffffffffffffffffffffffffffffffff1602179055506080820151816004015560a08201518160050160006101000a81548160ff0219169083151502179055509050507f51ef7ea7ec6900a0fe11c5606f2cda26dd9de653965877d4cdaebcf56a52f3ac8433604051610cab929190613d46565b60405180910390a150505050565b610cca610cc4611f0d565b8261222a565b610d09576040517f08c379a0000000000000000000000000000000000000000000000000000000008152600401610d0090613d0b565b60405180910390fd5b610d14838383611fce565b505050565b610d3483838360405180602001604052806000815250611236565b505050565b6000610d43611f0d565b73ffffffffffffffffffffffffffffffffffffffff16610d61611164565b73ffffffffffffffffffffffffffffffffffffffff1614610db7576040517f08c379a0000000000000000000000000000000000000000000000000000000008152600401610dae90613c6b565b60405180910390fd5b610dc16008612308565b6000610dcd600861231e565b9050610de0610dda611164565b8261232c565b610dea81846124fa565b60006040518060c00160405280838152602001878152602001858152602001610e11611164565b73ffffffffffffffffffffffffffffffffffffffff1681526020018681526020016001151581525090508060096000848152602001908152602001600020600082015181600001556020820151816001019080519060200190610e75929190612c17565b506040820151816002019080519060200190610e92929190612c17565b5060608201518160030160006101000a81548173ffffffffffffffffffffffffffffffffffffffff021916908373ffffffffffffffffffffffffffffffffffffffff1602179055506080820151816004015560a08201518160050160006101000a81548160ff0219169083151502179055509050507f9cf62adee4498f21a68d0b8734112ceeee60a08298395e91cc47e884fd8d6d43828786610f33611164565b896001604051610f4896959493929190613d98565b60405180910390a181925050509392505050565b600080610f69600861231e565b90508091505090565b6000806002600084815260200190815260200160002060009054906101000a900473ffffffffffffffffffffffffffffffffffffffff169050600073ffffffffffffffffffffffffffffffffffffffff168173ffffffffffffffffffffffffffffffffffffffff16141561101b576040517f08c379a000000000000000000000000000000000000000000000000000000000815260040161101290613bcb565b60405180910390fd5b80915050919050565b60008073ffffffffffffffffffffffffffffffffffffffff168273ffffffffffffffffffffffffffffffffffffffff161415611095576040517f08c379a000000000000000000000000000000000000000000000000000000000815260040161108c90613bab565b60405180910390fd5b600360008373ffffffffffffffffffffffffffffffffffffffff1673ffffffffffffffffffffffffffffffffffffffff168152602001908152602001600020549050919050565b6110e4611f0d565b73ffffffffffffffffffffffffffffffffffffffff16611102611164565b73ffffffffffffffffffffffffffffffffffffffff1614611158576040517f08c379a000000000000000000000000000000000000000000000000000000000815260040161114f90613c6b565b60405180910390fd5b611162600061256e565b565b6000600760009054906101000a900473ffffffffffffffffffffffffffffffffffffffff16905090565b60606001805461119d90614087565b80601f01602080910402602001604051908101604052809291908181526020018280546111c990614087565b80156112165780601f106111eb57610100808354040283529160200191611216565b820191906000526020600020905b8154815290600101906020018083116111f957829003601f168201915b5050505050905090565b61123261122b611f0d565b8383612634565b5050565b611247611241611f0d565b8361222a565b611286576040517f08c379a000000000000000000000000000000000000000000000000000000000815260040161127d90613d0b565b60405180910390fd5b611292848484846127a1565b50505050565b60606112a382611ea1565b6112e2576040517f08c379a00000000000000000000000000000000000000000000000000000000081526004016112d990613c2b565b60405180910390fd5b600060066000848152602001908152602001600020805461130290614087565b80601f016020809104026020016040519081016040528092919081815260200182805461132e90614087565b801561137b5780601f106113505761010080835404028352916020019161137b565b820191906000526020600020905b81548152906001019060200180831161135e57829003601f168201915b50505050509050600061138c6127fd565b90506000815114156113a25781925050506113e5565b6000825111156113d75780826040516020016113bf929190613983565b604051602081830303815290604052925050506113e5565b6113e084612814565b925050505b919050565b600960205280600052604060002060009150905080600001549080600101805461141390614087565b80601f016020809104026020016040519081016040528092919081815260200182805461143f90614087565b801561148c5780601f106114615761010080835404028352916020019161148c565b820191906000526020600020905b81548152906001019060200180831161146f57829003601f168201915b5050505050908060020180546114a190614087565b80601f01602080910402602001604051908101604052809291908181526020018280546114cd90614087565b801561151a5780601f106114ef5761010080835404028352916020019161151a565b820191906000526020600020905b8154815290600101906020018083116114fd57829003601f168201915b5050505050908060030160009054906101000a900473ffffffffffffffffffffffffffffffffffffffff16908060040154908060050160009054906101000a900460ff16905086565b61156c81611ea1565b6115ab576040517f08c379a00000000000000000000000000000000000000000000000000000000081526004016115a290613acb565b60405180910390fd5b3373ffffffffffffffffffffffffffffffffffffffff166115cb82610f72565b73ffffffffffffffffffffffffffffffffffffffff1614611621576040517f08c379a000000000000000000000000000000000000000000000000000000000815260040161161890613a4b565b60405180910390fd5b6000600960008381526020019081526020016000206040518060c00160405290816000820154815260200160018201805461165b90614087565b80601f016020809104026020016040519081016040528092919081815260200182805461168790614087565b80156116d45780601f106116a9576101008083540402835291602001916116d4565b820191906000526020600020905b8154815290600101906020018083116116b757829003601f168201915b505050505081526020016002820180546116ed90614087565b80601f016020809104026020016040519081016040528092919081815260200182805461171990614087565b80156117665780601f1061173b57610100808354040283529160200191611766565b820191906000526020600020905b81548152906001019060200180831161174957829003601f168201915b505050505081526020016003820160009054906101000a900473ffffffffffffffffffffffffffffffffffffffff1673ffffffffffffffffffffffffffffffffffffffff1673ffffffffffffffffffffffffffffffffffffffff168152602001600482015481526020016005820160009054906101000a900460ff16151515158152505090508060a00151158160a0019015159081151581525050806009600084815260200190815260200160002060008201518160000155602082015181600101908051906020019061183b929190612c17565b506040820151816002019080519060200190611858929190612c17565b5060608201518160030160006101000a81548173ffffffffffffffffffffffffffffffffffffffff021916908373ffffffffffffffffffffffffffffffffffffffff1602179055506080820151816004015560a08201518160050160006101000a81548160ff0219169083151502179055509050507f55b07c9cc35990ec1cbacd8a12fd019d2234f9d9ab2f5fc02d82be11c7070402828260a00151604051611902929190613d6f565b60405180910390a15050565b6000600560008473ffffffffffffffffffffffffffffffffffffffff1673ffffffffffffffffffffffffffffffffffffffff16815260200190815260200160002060008373ffffffffffffffffffffffffffffffffffffffff1673ffffffffffffffffffffffffffffffffffffffff16815260200190815260200160002060009054906101000a900460ff16905092915050565b6119aa611f0d565b73ffffffffffffffffffffffffffffffffffffffff166119c8611164565b73ffffffffffffffffffffffffffffffffffffffff1614611a1e576040517f08c379a0000000000000000000000000000000000000000000000000000000008152600401611a1590613c6b565b60405180910390fd5b600073ffffffffffffffffffffffffffffffffffffffff168173ffffffffffffffffffffffffffffffffffffffff161415611a8e576040517f08c379a0000000000000000000000000000000000000000000000000000000008152600401611a8590613a8b565b60405180910390fd5b611a978161256e565b50565b611aa382611ea1565b611ae2576040517f08c379a0000000000000000000000000000000000000000000000000000000008152600401611ad990613acb565b60405180910390fd5b3373ffffffffffffffffffffffffffffffffffffffff16611b0283610f72565b73ffffffffffffffffffffffffffffffffffffffff1614611b58576040517f08c379a0000000000000000000000000000000000000000000000000000000008152600401611b4f90613b6b565b60405180910390fd5b6000600960008481526020019081526020016000206040518060c001604052908160008201548152602001600182018054611b9290614087565b80601f0160208091040260200160405190810160405280929190818152602001828054611bbe90614087565b8015611c0b5780601f10611be057610100808354040283529160200191611c0b565b820191906000526020600020905b815481529060010190602001808311611bee57829003601f168201915b50505050508152602001600282018054611c2490614087565b80601f0160208091040260200160405190810160405280929190818152602001828054611c5090614087565b8015611c9d5780601f10611c7257610100808354040283529160200191611c9d565b820191906000526020600020905b815481529060010190602001808311611c8057829003601f168201915b505050505081526020016003820160009054906101000a900473ffffffffffffffffffffffffffffffffffffffff1673ffffffffffffffffffffffffffffffffffffffff1673ffffffffffffffffffffffffffffffffffffffff168152602001600482015481526020016005820160009054906101000a900460ff1615151515815250509050818160800181815250508060096000858152602001908152602001600020600082015181600001556020820151816001019080519060200190611d67929190612c17565b506040820151816002019080519060200190611d84929190612c17565b5060608201518160030160006101000a81548173ffffffffffffffffffffffffffffffffffffffff021916908373ffffffffffffffffffffffffffffffffffffffff1602179055506080820151816004015560a08201518160050160006101000a81548160ff0219169083151502179055509050507f033cd0550b919dc563cde2f00d0adbea1bfd0d4ef171a071ac90941674cd52358383604051611e2a929190613e07565b60405180910390a1505050565b60007f01ffc9a7000000000000000000000000000000000000000000000000000000007bffffffffffffffffffffffffffffffffffffffffffffffffffffffff1916827bffffffffffffffffffffffffffffffffffffffffffffffffffffffff1916149050919050565b60008073ffffffffffffffffffffffffffffffffffffffff166002600084815260200190815260200160002060009054906101000a900473ffffffffffffffffffffffffffffffffffffffff1673ffffffffffffffffffffffffffffffffffffffff1614159050919050565b600033905090565b816004600083815260200190815260200160002060006101000a81548173ffffffffffffffffffffffffffffffffffffffff021916908373ffffffffffffffffffffffffffffffffffffffff160217905550808273ffffffffffffffffffffffffffffffffffffffff16611f8883610f72565b73ffffffffffffffffffffffffffffffffffffffff167f8c5be1e5ebec7d5bd14f71427d1e84f3dd0314c0f7b2291e5b200ac8c7c3b92560405160405180910390a45050565b8273ffffffffffffffffffffffffffffffffffffffff16611fee82610f72565b73ffffffffffffffffffffffffffffffffffffffff1614612044576040517f08c379a000000000000000000000000000000000000000000000000000000000815260040161203b90613cab565b60405180910390fd5b600073ffffffffffffffffffffffffffffffffffffffff168273ffffffffffffffffffffffffffffffffffffffff1614156120b4576040517f08c379a00000000000000000000000000000000000000000000000000000000081526004016120ab90613aeb565b60405180910390fd5b6120bf8383836128bb565b6120ca600082611f15565b6001600360008573ffffffffffffffffffffffffffffffffffffffff1673ffffffffffffffffffffffffffffffffffffffff168152602001908152602001600020600082825461211a9190613f8b565b925050819055506001600360008473ffffffffffffffffffffffffffffffffffffffff1673ffffffffffffffffffffffffffffffffffffffff16815260200190815260200160002060008282546121719190613f04565b92505081905550816002600083815260200190815260200160002060006101000a81548173ffffffffffffffffffffffffffffffffffffffff021916908373ffffffffffffffffffffffffffffffffffffffff160217905550808273ffffffffffffffffffffffffffffffffffffffff168473ffffffffffffffffffffffffffffffffffffffff167fddf252ad1be2c89b69c2b068fc378daa952ba7f163c4a11628f55a4df523b3ef60405160405180910390a4505050565b600061223582611ea1565b612274576040517f08c379a000000000000000000000000000000000000000000000000000000000815260040161226b90613b2b565b60405180910390fd5b600061227f83610f72565b90508073ffffffffffffffffffffffffffffffffffffffff168473ffffffffffffffffffffffffffffffffffffffff1614806122ee57508373ffffffffffffffffffffffffffffffffffffffff166122d6846106c2565b73ffffffffffffffffffffffffffffffffffffffff16145b806122ff57506122fe818561190e565b5b91505092915050565b6001816000016000828254019250508190555050565b600081600001549050919050565b600073ffffffffffffffffffffffffffffffffffffffff168273ffffffffffffffffffffffffffffffffffffffff16141561239c576040517f08c379a000000000000000000000000000000000000000000000000000000000815260040161239390613c0b565b60405180910390fd5b6123a581611ea1565b156123e5576040517f08c379a00000000000000000000000000000000000000000000000000000000081526004016123dc90613aab565b60405180910390fd5b6123f1600083836128bb565b6001600360008473ffffffffffffffffffffffffffffffffffffffff1673ffffffffffffffffffffffffffffffffffffffff16815260200190815260200160002060008282546124419190613f04565b92505081905550816002600083815260200190815260200160002060006101000a81548173ffffffffffffffffffffffffffffffffffffffff021916908373ffffffffffffffffffffffffffffffffffffffff160217905550808273ffffffffffffffffffffffffffffffffffffffff16600073ffffffffffffffffffffffffffffffffffffffff167fddf252ad1be2c89b69c2b068fc378daa952ba7f163c4a11628f55a4df523b3ef60405160405180910390a45050565b61250382611ea1565b612542576040517f08c379a000000000000000000000000000000000000000000000000000000000815260040161253990613beb565b60405180910390fd5b80600660008481526020019081526020016000209080519060200190612569929190612c17565b505050565b6000600760009054906101000a900473ffffffffffffffffffffffffffffffffffffffff16905081600760006101000a81548173ffffffffffffffffffffffffffffffffffffffff021916908373ffffffffffffffffffffffffffffffffffffffff1602179055508173ffffffffffffffffffffffffffffffffffffffff168173ffffffffffffffffffffffffffffffffffffffff167f8be0079c531659141344cd1fd0a4f28419497f9722a3daafe3b4186f6b6457e060405160405180910390a35050565b8173ffffffffffffffffffffffffffffffffffffffff168373ffffffffffffffffffffffffffffffffffffffff1614156126a3576040517f08c379a000000000000000000000000000000000000000000000000000000000815260040161269a90613b0b565b60405180910390fd5b80600560008573ffffffffffffffffffffffffffffffffffffffff1673ffffffffffffffffffffffffffffffffffffffff16815260200190815260200160002060008473ffffffffffffffffffffffffffffffffffffffff1673ffffffffffffffffffffffffffffffffffffffff16815260200190815260200160002060006101000a81548160ff0219169083151502179055508173ffffffffffffffffffffffffffffffffffffffff168373ffffffffffffffffffffffffffffffffffffffff167f17307eab39ab6107e8899845ad3d59bd9653f200f220920489ca2b5937696c31836040516127949190613a0e565b60405180910390a3505050565b6127ac848484611fce565b6127b8848484846128c0565b6127f7576040517f08c379a00000000000000000000000000000000000000000000000000000000081526004016127ee90613a6b565b60405180910390fd5b50505050565b606060405180602001604052806000815250905090565b606061281f82611ea1565b61285e576040517f08c379a000000000000000000000000000000000000000000000000000000000815260040161285590613ccb565b60405180910390fd5b60006128686127fd565b9050600081511161288857604051806020016040528060008152506128b3565b8061289284612a57565b6040516020016128a3929190613983565b6040516020818303038152906040525b915050919050565b505050565b60006128e18473ffffffffffffffffffffffffffffffffffffffff16612c04565b15612a4a578373ffffffffffffffffffffffffffffffffffffffff1663150b7a0261290a611f0d565b8786866040518563ffffffff1660e01b815260040161292c94939291906139c2565b602060405180830381600087803b15801561294657600080fd5b505af192505050801561297757506040513d601f19601f820116820180604052508101906129749190612fc3565b60015b6129fa573d80600081146129a7576040519150601f19603f3d011682016040523d82523d6000602084013e6129ac565b606091505b506000815114156129f2576040517f08c379a00000000000000000000000000000000000000000000000000000000081526004016129e990613a6b565b60405180910390fd5b805181602001fd5b63150b7a0260e01b7bffffffffffffffffffffffffffffffffffffffffffffffffffffffff1916817bffffffffffffffffffffffffffffffffffffffffffffffffffffffff191614915050612a4f565b600190505b949350505050565b60606000821415612a9f576040518060400160405280600181526020017f30000000000000000000000000000000000000000000000000000000000000008152509050612bff565b600082905060005b60008214612ad1578080612aba906140b9565b915050600a82612aca9190613f5a565b9150612aa7565b60008167ffffffffffffffff811115612b13577f4e487b7100000000000000000000000000000000000000000000000000000000600052604160045260246000fd5b6040519080825280601f01601f191660200182016040528015612b455781602001600182028036833780820191505090505b5090505b60008514612bf857600182612b5e9190613f8b565b9150600a85612b6d9190614102565b6030612b799190613f04565b60f81b818381518110612bb5577f4e487b7100000000000000000000000000000000000000000000000000000000600052603260045260246000fd5b60200101907effffffffffffffffffffffffffffffffffffffffffffffffffffffffffffff1916908160001a905350600a85612bf19190613f5a565b9450612b49565b8093505050505b919050565b600080823b905060008111915050919050565b828054612c2390614087565b90600052602060002090601f016020900481019282612c455760008555612c8c565b82601f10612c5e57805160ff1916838001178555612c8c565b82800160010185558215612c8c579182015b82811115612c8b578251825591602001919060010190612c70565b5b509050612c999190612c9d565b5090565b5b80821115612cb6576000816000905550600101612c9e565b5090565b6000612ccd612cc884613e61565b613e30565b905082815260208101848484011115612ce557600080fd5b612cf0848285614045565b509392505050565b6000612d0b612d0684613e91565b613e30565b905082815260208101848484011115612d2357600080fd5b612d2e848285614045565b509392505050565b600081359050612d4581614200565b92915050565b600081359050612d5a81614217565b92915050565b600081359050612d6f8161422e565b92915050565b600081519050612d848161422e565b92915050565b600082601f830112612d9b57600080fd5b8135612dab848260208601612cba565b91505092915050565b600082601f830112612dc557600080fd5b8135612dd5848260208601612cf8565b91505092915050565b600081359050612ded81614245565b92915050565b600060208284031215612e0557600080fd5b6000612e1384828501612d36565b91505092915050565b60008060408385031215612e2f57600080fd5b6000612e3d85828601612d36565b9250506020612e4e85828601612d36565b9150509250929050565b600080600060608486031215612e6d57600080fd5b6000612e7b86828701612d36565b9350506020612e8c86828701612d36565b9250506040612e9d86828701612dde565b9150509250925092565b60008060008060808587031215612ebd57600080fd5b6000612ecb87828801612d36565b9450506020612edc87828801612d36565b9350506040612eed87828801612dde565b925050606085013567ffffffffffffffff811115612f0a57600080fd5b612f1687828801612d8a565b91505092959194509250565b60008060408385031215612f3557600080fd5b6000612f4385828601612d36565b9250506020612f5485828601612d4b565b9150509250929050565b60008060408385031215612f7157600080fd5b6000612f7f85828601612d36565b9250506020612f9085828601612dde565b9150509250929050565b600060208284031215612fac57600080fd5b6000612fba84828501612d60565b91505092915050565b600060208284031215612fd557600080fd5b6000612fe384828501612d75565b91505092915050565b60008060006060848603121561300157600080fd5b600084013567ffffffffffffffff81111561301b57600080fd5b61302786828701612db4565b935050602061303886828701612dde565b925050604084013567ffffffffffffffff81111561305557600080fd5b61306186828701612db4565b9150509250925092565b60006020828403121561307d57600080fd5b600061308b84828501612dde565b91505092915050565b600080604083850312156130a757600080fd5b60006130b585828601612dde565b92505060206130c685828601612dde565b9150509250929050565b6130d981613fd1565b82525050565b6130e881613fbf565b82525050565b6130f781613fe3565b82525050565b600061310882613ec1565b6131128185613ed7565b9350613122818560208601614054565b61312b816141ef565b840191505092915050565b600061314182613ecc565b61314b8185613ee8565b935061315b818560208601614054565b613164816141ef565b840191505092915050565b600061317a82613ecc565b6131848185613ef9565b9350613194818560208601614054565b80840191505092915050565b60006131ad601183613ee8565b91507f746f6b656e206973206e6f7420796f75720000000000000000000000000000006000830152602082019050919050565b60006131ed603283613ee8565b91507f4552433732313a207472616e7366657220746f206e6f6e20455243373231526560008301527f63656976657220696d706c656d656e74657200000000000000000000000000006020830152604082019050919050565b6000613253602683613ee8565b91507f4f776e61626c653a206e6577206f776e657220697320746865207a65726f206160008301527f64647265737300000000000000000000000000000000000000000000000000006020830152604082019050919050565b60006132b9601c83613ee8565b91507f4552433732313a20746f6b656e20616c7265616479206d696e746564000000006000830152602082019050919050565b60006132f9601683613ee8565b91507f74686572652069736e2774207468697320746f6b656e000000000000000000006000830152602082019050919050565b6000613339602483613ee8565b91507f4552433732313a207472616e7366657220746f20746865207a65726f2061646460008301527f72657373000000000000000000000000000000000000000000000000000000006020830152604082019050919050565b600061339f601983613ee8565b91507f4552433732313a20617070726f766520746f2063616c6c6572000000000000006000830152602082019050919050565b60006133df602c83613ee8565b91507f4552433732313a206f70657261746f7220717565727920666f72206e6f6e657860008301527f697374656e7420746f6b656e00000000000000000000000000000000000000006020830152604082019050919050565b6000613445600a83613ee8565b91507f646f6e27742073616c65000000000000000000000000000000000000000000006000830152602082019050919050565b6000613485601083613ee8565b91507f746f6b656e206973206e6f7420796f75000000000000000000000000000000006000830152602082019050919050565b60006134c5603883613ee8565b91507f4552433732313a20617070726f76652063616c6c6572206973206e6f74206f7760008301527f6e6572206e6f7220617070726f76656420666f7220616c6c00000000000000006020830152604082019050919050565b600061352b602a83613ee8565b91507f4552433732313a2062616c616e636520717565727920666f7220746865207a6560008301527f726f2061646472657373000000000000000000000000000000000000000000006020830152604082019050919050565b6000613591602983613ee8565b91507f4552433732313a206f776e657220717565727920666f72206e6f6e657869737460008301527f656e7420746f6b656e00000000000000000000000000000000000000000000006020830152604082019050919050565b60006135f7602e83613ee8565b91507f45524337323155524953746f726167653a2055524920736574206f66206e6f6e60008301527f6578697374656e7420746f6b656e0000000000000000000000000000000000006020830152604082019050919050565b600061365d602083613ee8565b91507f4552433732313a206d696e7420746f20746865207a65726f20616464726573736000830152602082019050919050565b600061369d603183613ee8565b91507f45524337323155524953746f726167653a2055524920717565727920666f722060008301527f6e6f6e6578697374656e7420746f6b656e0000000000000000000000000000006020830152604082019050919050565b6000613703602c83613ee8565b91507f4552433732313a20617070726f76656420717565727920666f72206e6f6e657860008301527f697374656e7420746f6b656e00000000000000000000000000000000000000006020830152604082019050919050565b6000613769602083613ee8565b91507f4f776e61626c653a2063616c6c6572206973206e6f7420746865206f776e65726000830152602082019050919050565b60006137a9601183613ee8565b91507f796f752068617665206e6f206d6f6e65790000000000000000000000000000006000830152602082019050919050565b60006137e9602983613ee8565b91507f4552433732313a207472616e73666572206f6620746f6b656e2074686174206960008301527f73206e6f74206f776e00000000000000000000000000000000000000000000006020830152604082019050919050565b600061384f602f83613ee8565b91507f4552433732314d657461646174613a2055524920717565727920666f72206e6f60008301527f6e6578697374656e7420746f6b656e00000000000000000000000000000000006020830152604082019050919050565b60006138b5602183613ee8565b91507f4552433732313a20617070726f76616c20746f2063757272656e74206f776e6560008301527f72000000000000000000000000000000000000000000000000000000000000006020830152604082019050919050565b600061391b603183613ee8565b91507f4552433732313a207472616e736665722063616c6c6572206973206e6f74206f60008301527f776e6572206e6f7220617070726f7665640000000000000000000000000000006020830152604082019050919050565b61397d8161403b565b82525050565b600061398f828561316f565b915061399b828461316f565b91508190509392505050565b60006020820190506139bc60008301846130df565b92915050565b60006080820190506139d760008301876130df565b6139e460208301866130df565b6139f16040830185613974565b8181036060830152613a0381846130fd565b905095945050505050565b6000602082019050613a2360008301846130ee565b92915050565b60006020820190508181036000830152613a438184613136565b905092915050565b60006020820190508181036000830152613a64816131a0565b9050919050565b60006020820190508181036000830152613a84816131e0565b9050919050565b60006020820190508181036000830152613aa481613246565b9050919050565b60006020820190508181036000830152613ac4816132ac565b9050919050565b60006020820190508181036000830152613ae4816132ec565b9050919050565b60006020820190508181036000830152613b048161332c565b9050919050565b60006020820190508181036000830152613b2481613392565b9050919050565b60006020820190508181036000830152613b44816133d2565b9050919050565b60006020820190508181036000830152613b6481613438565b9050919050565b60006020820190508181036000830152613b8481613478565b9050919050565b60006020820190508181036000830152613ba4816134b8565b9050919050565b60006020820190508181036000830152613bc48161351e565b9050919050565b60006020820190508181036000830152613be481613584565b9050919050565b60006020820190508181036000830152613c04816135ea565b9050919050565b60006020820190508181036000830152613c2481613650565b9050919050565b60006020820190508181036000830152613c4481613690565b9050919050565b60006020820190508181036000830152613c64816136f6565b9050919050565b60006020820190508181036000830152613c848161375c565b9050919050565b60006020820190508181036000830152613ca48161379c565b9050919050565b60006020820190508181036000830152613cc4816137dc565b9050919050565b60006020820190508181036000830152613ce481613842565b9050919050565b60006020820190508181036000830152613d04816138a8565b9050919050565b60006020820190508181036000830152613d248161390e565b9050919050565b6000602082019050613d406000830184613974565b92915050565b6000604082019050613d5b6000830185613974565b613d6860208301846130d0565b9392505050565b6000604082019050613d846000830185613974565b613d9160208301846130ee565b9392505050565b600060c082019050613dad6000830189613974565b8181036020830152613dbf8188613136565b90508181036040830152613dd38187613136565b9050613de260608301866130d0565b613def6080830185613974565b613dfc60a08301846130ee565b979650505050505050565b6000604082019050613e1c6000830185613974565b613e296020830184613974565b9392505050565b6000604051905081810181811067ffffffffffffffff82111715613e5757613e566141c0565b5b8060405250919050565b600067ffffffffffffffff821115613e7c57613e7b6141c0565b5b601f19601f8301169050602081019050919050565b600067ffffffffffffffff821115613eac57613eab6141c0565b5b601f19601f8301169050602081019050919050565b600081519050919050565b600081519050919050565b600082825260208201905092915050565b600082825260208201905092915050565b600081905092915050565b6000613f0f8261403b565b9150613f1a8361403b565b9250827fffffffffffffffffffffffffffffffffffffffffffffffffffffffffffffffff03821115613f4f57613f4e614133565b5b828201905092915050565b6000613f658261403b565b9150613f708361403b565b925082613f8057613f7f614162565b5b828204905092915050565b6000613f968261403b565b9150613fa18361403b565b925082821015613fb457613fb3614133565b5b828203905092915050565b6000613fca8261401b565b9050919050565b6000613fdc8261401b565b9050919050565b60008115159050919050565b60007fffffffff0000000000000000000000000000000000000000000000000000000082169050919050565b600073ffffffffffffffffffffffffffffffffffffffff82169050919050565b6000819050919050565b82818337600083830152505050565b60005b83811015614072578082015181840152602081019050614057565b83811115614081576000848401525b50505050565b6000600282049050600182168061409f57607f821691505b602082108114156140b3576140b2614191565b5b50919050565b60006140c48261403b565b91507fffffffffffffffffffffffffffffffffffffffffffffffffffffffffffffffff8214156140f7576140f6614133565b5b600182019050919050565b600061410d8261403b565b91506141188361403b565b92508261412857614127614162565b5b828206905092915050565b7f4e487b7100000000000000000000000000000000000000000000000000000000600052601160045260246000fd5b7f4e487b7100000000000000000000000000000000000000000000000000000000600052601260045260246000fd5b7f4e487b7100000000000000000000000000000000000000000000000000000000600052602260045260246000fd5b7f4e487b7100000000000000000000000000000000000000000000000000000000600052604160045260246000fd5b6000601f19601f8301169050919050565b61420981613fbf565b811461421457600080fd5b50565b61422081613fe3565b811461422b57600080fd5b50565b61423781613fef565b811461424257600080fd5b50565b61424e8161403b565b811461425957600080fd5b5056fea2646970667358221220c188c68b82d7b372fb35f3953b6f9a80aba973d5d66a99979499c71856e961e864736f6c63430008000033",
  "linkReferences": {},
  "deployedLinkReferences": {}
}